:100000000C945C000C9479000C9479000C947900A9
:100010000C9479000C9479000C9479000C9479007C
:100020000C9479000C9479000C9479000C9479006C
:100030000C9479000C9479000C9479000C9479005C
:100040000C94C5010C9479000C9479000C947900FF
:100050000C9479000C9479000C9479000C9479003C
:100060000C9479000C947900000000070002010054
:100070000003040600000000000000000102040864
:100080001020408001020408102001020408102002
:10009000040404040404040402020202020203032E
:1000A0000303030300000000250028002B000000CC
:1000B0000000240027002A0011241FBECFEFD8E043
:1000C000DEBFCDBF11E0A0E0B1E0E4EDF6E002C09C
:1000D00005900D92A230B107D9F711E0A2E0B1E08E
:1000E00001C01D92AB30B107E1F70E9433030C94BD
:1000F00068030C94000081E00E94A40183E00E9448
:10010000A40161E080E00E94C40261E081E00E94FD
:10011000C40261E084E00C94C402CF92DF92EF92BB
:10012000FF920F931F93CF93DF93C82E7B018A0119
:10013000C0E0D0E023C061E08C2D0E94FC02DD20F5
:1001400029F064EF71E080E090E004C06AEF70E0B5
:1001500080E090E00E94390260E08C2D0E94FC0259
:10016000DD2029F06CE678EE80E090E004C064EFDA
:1001700071E080E090E00E9439022196DD24D39462
:10018000101611060CF0D12C2D2D30E0C217D3071C
:1001900024F40115110579F603C0E114F10459F6B0
:1001A000DF91CF911F910F91FF90EF90DF90CF9053
:1001B0000895FF920F931F93CF93DF93F82E0E9421
:1001C000A401EC0164E670E080E090E00E94390256
:1001D0008F2D0E94A4018C0164E670E080E090E025
:1001E0000E9439028F2D0E94A40198012C0F3D1FFF
:1001F000280F391FC90163E070E00E944003CB0162
:10020000DF91CF911F910F91FF9008950E94D90027
:1002100062E270E00E9440031616170634F46F3154
:1002200071052CF06EE170E002C061E070E0CB017E
:10023000089581E00E94D9008A3F910504F560E0AD
:1002400084E00E94FC0261E080E00E94FC0264EF16
:1002500071E080E090E00E94390260E080E00E945E
:10026000FC0261E081E00E94FC0264EF71E080E04A
:1002700090E00E94390260E081E00C94FC0281E091
:100280000E94D9008A3F91058CF181E00E94D9003B
:1002900088359240ACF02AC081E00E94D9008132BA
:1002A00093405CF181E00E94D900813293400CF4CC
:1002B00040C081E00E94D900823593409CF139C052
:1002C00083E00E940601BC01660F771F40E050E00A
:1002D00080E00E948D0061E084E00E94FC0283E0E7
:1002E0000E940601AC01440F551F18C081E00E9416
:1002F000D90088359240B4F2CFCF83E00E94060146
:1003000040E050E0BC0180E00E948D0061E084E0AC
:100310000E94FC0283E00E940601AC0160E070E0F4
:1003200080E010C060E084E00E94FC0244E150E004
:1003300006C060E084E00E94FC0248E750E060E014
:1003400070E081E00C948D008E3008F08E50877044
:100350002091000140E4249F90011124822B80937E
:100360007C0080917A00806480937A0080917A008A
:1003700086FDFCCF2091780030917900932F80E0AA
:10038000AC01422B9A01C90108951F920F920FB63A
:100390000F9211242F933F938F939F93AF93BF930B
:1003A0008091020190910301A0910401B091050197
:1003B00030910A01232F2D5F2D3720F40196A11DC6
:1003C000B11D05C0232F2A570296A11DB11D2093F0
:1003D0000A018093020190930301A0930401B0935A
:1003E00005018091060190910701A0910801B0914B
:1003F00009010196A11DB11D80930601909307018B
:10040000A0930801B0930901BF91AF919F918F9183
:100410003F912F910F900FBE0F901F9018950F9343
:100420001F939FB7F8940091060110910701209146
:1004300008013091090186B5A89B06C08F3F21F0C5
:100440000F5F1F4F2F4F3F4F9FBF322F212F102F76
:100450000027080F111D211D311D42E0000F111F43
:10046000221F331F4A95D1F7B801C9011F910F917F
:100470000895CF92DF92EF92FF92CF93DF936B01BB
:100480007C010E940F02EB010EC00E940F026C1B48
:100490007D0B683E734038F081E0C81AD108E1084E
:1004A000F108C851DC4FC114D104E104F10469F72B
:1004B000DF91CF91FF90EF90DF90CF9008957894E7
:1004C00084B5826084BD84B5816084BD85B5826059
:1004D00085BD85B5816085BDEEE6F0E080818160F7
:1004E0008083E1E8F0E010828081826080838081F7
:1004F00081608083E0E8F0E0808181608083E1EBCF
:10050000F0E0808184608083E0EBF0E080818160B6
:100510008083EAE7F0E0808184608083808182606C
:100520008083808181608083808180688083109255
:10053000C1000895833069F028F48130A1F0823041
:1005400011F514C08630B1F08730C1F08430D9F491
:1005500004C0809180008F7703C0809180008F7DE0
:1005600080938000089584B58F7702C084B58F7D15
:1005700084BD08958091B0008F7703C08091B00052
:100580008F7D8093B0000895CF93DF9390E0FC01BE
:10059000E458FF4F4491FC01E057FF4F84918823BA
:1005A00041F190E0880F991FFC01E255FF4F259122
:1005B0003491D9018C559F4FFC0185919491C82F9E
:1005C000D92F9FB7F8948C91611106C04095842370
:1005D0008C938881842308C0623041F4242F2095B5
:1005E00082238C938881842B888302C0842B8C93F4
:1005F0009FBFDF91CF9108950F931F93CF93DF9308
:100600001F92CDB7DEB7282F30E0F901E859FF4F30
:100610008491F901E458FF4F1491F901E057FF4F1D
:1006200004910023D1F0882321F069830E949A026B
:100630006981E02FF0E0EE0FFF1FEC55FF4F859131
:100640009491DC019FB7F8948C91611103C01095CF
:10065000812301C0812B8C939FBF0F90DF91CF919D
:100660001F910F9108950E945F020E947B00C0E0DD
:10067000D0E00E9419012097E1F30E940000F9CF19
:1006800097FB072E16F4009407D077FD09D00E943F
:10069000540307FC05D03EF4909581959F4F089533
:1006A000709561957F4F0895AA1BBB1B51E107C050
:1006B000AA1FBB1FA617B70710F0A61BB70B881FF2
:1006C000991F5A95A9F780959095BC01CD01089581
:0406D000F894FFCFCC
:0206D400010023
:00000001FF
