:100000000C945D000C9485000C9485000C94850084
:100010000C9485000C9485000C9485000C9485004C
:100020000C9485000C9485000C9485000C9485003C
:100030000C9485000C9485000C9485000C9485002C
:100040000C943C020C9485000C9446040C94890496
:100050000C9485000C9485000C9485000C9485000C
:100060000C9485000C94850000000007000201003C
:100070000003040600000000000000000102040864
:100080001020408001020408102001020408102002
:10009000040404040404040402020202020203032E
:1000A0000303030300000000250028002B000000CC
:1000B0000000240027002A00450511241FBECFEFB1
:1000C000D8E0DEBFCDBF11E0A0E0B1E0E4E5FEE0A6
:1000D00002C005900D92A63EB107D9F712E0A6EE38
:1000E000B1E001C01D92A939B107E1F710E0CAEBF8
:1000F000D0E004C02297FE010E942407C83BD1072C
:10010000C9F70E949B050C9428070C9400000F93DC
:100110001F93CF93DF93082FEB0110E015C061E030
:10012000802F0E9473036AEF70E080E090E00E94ED
:10013000B00260E0802F0E9473036AEF70E080E0FD
:1001400090E00E94B0021F5F212F30E02C173D0786
:1001500034F3DF91CF911F910F9108958EE00E94AB
:100160001B0280E10E941B0261E082E00E943B03CF
:1001700061E083E00E943B0361E084E00E943B0376
:1001800040E855E260E070E08FEE91E00C94C4042A
:100190000F931F93CF93DF93182FEA011C161D06B0
:1001A000E4F0DF91CF911F910F910C94870061E0F3
:1001B000812F0E94730364EF71E080E090E00E9461
:1001C000B00260E0812F0E9473036CE678EE80E05D
:1001D00090E00E94B0020F5F01C000E0202F30E0ED
:1001E0002C173D0724F3DF91CF911F910F910895B4
:1001F000FF920F931F93CF93DF93F82E0E941B0261
:10020000EC0164E670E080E090E00E94B0028F2D87
:100210000E941B028C0164E670E080E090E00E9486
:10022000B0028F2D0E941B0298012C0F3D1F280F3A
:10023000391FC90163E070E00E94EC06CB01DF9139
:10024000CF911F910F91FF900895FF920F931F93ED
:10025000CF93DF93F82E0E941B02EC0164E670E05E
:1002600080E090E00E94B0028F2D0E941B028C0162
:1002700064E670E080E090E00E94B0028F2D0E9462
:100280001B0298012C0F3D1F280F391FC90163E085
:1002900070E00E94D806CB0162E270E00E94D806AE
:1002A0006115710531F06F3171052CF06EE170E070
:1002B00002C061E070E0CB01DF91CF911F910F91FF
:1002C000FF90089561E071E08FEE91E00E940306D7
:1002D0008EE00E94F8004AE050E0BC018FEE91E011
:1002E0000E94BE066CE071E08FEE91E00E94030672
:1002F00080E10E9425014AE050E0BC018FEE91E0D0
:100300000E94BE068EE00E94F8008A3F91054CF4E0
:1003100060E084E00E9473036AE070E082E00C9485
:1003200087008EE00E94F8008A3F9105BCF18EE0C4
:100330000E94F80088359240ACF030C08EE00E94F8
:10034000F800813293408CF18EE00E94F8008132F7
:1003500093400CF45FC08EE00E94F8008235934019
:10036000DCF158C069E171E08FEE91E00E94030674
:100370006AE070E082E00E94870061E084E00E9411
:1003800073036CE371E08FEE91E00E94030680E15D
:100390000E942501AC01440F551F1AC08EE00E9437
:1003A000F8008835924084F2C9CF6DE471E08FEE99
:1003B00091E00E94030663E070E082E00E94870003
:1003C00061E084E00E94730380E10E942501AC019A
:1003D00060E070E082E02DC063E771E08FEE91E0B5
:1003E0000E94030660E084E00E9473036CE771E002
:1003F0008FEE91E00E9403066AE070E083E00E94C5
:10040000870067E971E08FEE91E00E94030644E106
:1004100050E00CC060E084E00E9473036BEA71E07E
:100420008FEE91E00E94030648E750E060E070E044
:1004300083E00C94C8008E3008F08E5087702091B5
:10044000000140E4249F90011124822B80937C00C2
:1004500080917A00806480937A0080917A0086FD92
:10046000FCCF2091780030917900932F80E0AC018F
:10047000422B9A01C90108951F920F920FB60F9255
:1004800011242F933F938F939F93AF93BF938091AA
:10049000E6019091E701A091E801B091E901309166
:1004A000EE01232F2D5F2D3720F40196A11DB11DE4
:1004B00005C0232F2A570296A11DB11D2093EE01DE
:1004C0008093E6019093E701A093E801B093E901DE
:1004D0008091EA019091EB01A091EC01B091ED01C6
:1004E0000196A11DB11D8093EA019093EB01A093A9
:1004F000EC01B093ED01BF91AF919F918F913F912E
:100500002F910F900FBE0F901F9018950F931F9370
:100510009FB7F8940091EA011091EB012091EC0152
:100520003091ED0186B5A89B06C08F3F21F00F5F8B
:100530001F4F2F4F3F4F9FBF322F212F102F0027CC
:10054000080F111D211D311D42E0000F111F221F38
:10055000331F4A95D1F7B801C9011F910F91089532
:10056000CF92DF92EF92FF92CF93DF936B017C01EA
:100570000E948602EB010EC00E9486026C1B7D0B5E
:10058000683E734038F081E0C81AD108E108F108EC
:10059000C851DC4FC114D104E104F10469F7DF91C3
:1005A000CF91FF90EF90DF90CF900895789484B52D
:1005B000826084BD84B5816084BD85B5826085BD5F
:1005C00085B5816085BDEEE6F0E080818160808345
:1005D000E1E8F0E010828081826080838081816028
:1005E0008083E0E8F0E0808181608083E1EBF0E0EF
:1005F000808184608083E0EBF0E080818160808393
:10060000EAE7F0E08081846080838081826080837B
:100610008081816080838081806880831092C100A6
:100620000895833069F028F48130A1F0823011F50B
:1006300014C08630B1F08730C1F08430D9F404C0E2
:10064000809180008F7703C0809180008F7D8093A0
:100650008000089584B58F7702C084B58F7D84BDF6
:1006600008958091B0008F7703C08091B0008F7D96
:100670008093B0000895CF93DF9390E0FC01E4589D
:10068000FF4F4491FC01E057FF4F8491882341F1D3
:1006900090E0880F991FFC01E255FF4F259134919E
:1006A000D9018C559F4FFC0185919491C82FD92F6A
:1006B0009FB7F8948C91611106C0409584238C9368
:1006C0008881842308C0623041F4242F209582233E
:1006D0008C938881842B888302C0842B8C939FBF4A
:1006E000DF91CF9108950F931F93CF93DF931F92C4
:1006F000CDB7DEB7282F30E0F901E859FF4F8491DC
:10070000F901E458FF4F1491F901E057FF4F0491AC
:100710000023D1F0882321F069830E9411036981AD
:10072000E02FF0E0EE0FFF1FEC55FF4F8591949105
:10073000DC019FB7F8948C91611103C0109581235F
:1007400001C0812B8C939FBF0F90DF91CF911F91A0
:100750000F910895FC0184859585FC01E05CFF4FB5
:1007600020813181FC01EE5BFF4F80819181281B4C
:10077000390B2F733327C9010895FC0184859585B2
:10078000FC01E05CFF4F40815181FC01EE5BFF4FBB
:10079000208131814217530741F00190F081E02D13
:1007A000E80FF91F208130E002C02FEF3FEFC901B1
:1007B0000895FC0184859585FC01E05CFF4F408134
:1007C0005181FC01EE5BFF4F2081318142175307BD
:1007D00081F0A081B181A80FB91F8C912081318156
:1007E0002F5F3F4F2F73332731832083282F30E033
:1007F00002C02FEF3FEFC9010895FC0181A18823BA
:1008000029F0A489B5898C9186FFFBCF11A20895A8
:10081000CF93DF93FC0126853785D901A05CBF4FBC
:100820008D919C91119701968F739927E901CE5B69
:10083000DF4F4881598184179507D9F30D90BC91FA
:10084000A02DA20FB31F6C93A685B785A05CBF4FE8
:1008500011969C938E93A689B7892C9181E090E0A4
:10086000078C02C0880F991F0A94E2F7282B2C935B
:1008700081E081A30488F589E02D808180648083F4
:1008800081E090E0DF91CF91089508951F920F923B
:100890000FB60F9211242F933F934F938F939F93F3
:1008A000EF93FF938091C00082FD1CC04091C60071
:1008B000809195029091960201968F7399272091CD
:1008C0009702309198028217930771F0E091950298
:1008D000F0919602EB5AFD4F4083909396028093DD
:1008E000950202C08091C600FF91EF919F918F9178
:1008F0004F913F912F910F900FBE0F901F90189521
:100900008FEE91E00E94AA03892B11F00C9445040C
:1009100008951F920F920FB60F9211242F933F93B9
:100920008F939F93EF93FF93209151023091520246
:1009300080915302909154022817390731F4809125
:10094000C1008F7D8093C10014C0E0915302F091EB
:100950005402EF5EFD4F208180915302909154022A
:1009600001968F739927909354028093530220939A
:10097000C600FF91EF919F918F913F912F910F9022
:100980000FBE0F901F901895CF92DF92EF92FF92BB
:10099000CF93DF93EC016A017B01411581EE58078B
:1009A00061057105F9F0EC89FD8981E090E008A00E
:1009B00002C0880F991F0A94E2F7808360E079E013
:1009C0008DE390E0A70196010E94000721503109B4
:1009D000410951095695479537952795211580E18D
:1009E000380798F0EC89FD89108260E874E88EE1A0
:1009F00090E0A70196010E940007215031094109AA
:100A000051095695479537952795E889F989308397
:100A1000EA89FB89208319A2EE89FF89408181E060
:100A200090E09C010C8C02C0220F331F0A94E2F765
:100A3000422B4083EE89FF8940819C010D8C02C0CE
:100A4000220F331F0A94E2F7422B4083EE89FF897D
:100A500040819C010E8C02C0220F331F0A94E2F7E2
:100A6000422B4083EE89FF8920810F8C02C0880FC2
:100A7000991F0A94E2F7809582238083DF91CF91BA
:100A8000FF90EF90DF90CF9008951092F2011092B6
:100A9000F10188EE93E0A0E0B0E08093F301909341
:100AA000F401A093F501B093F60189ED91E09093E4
:100AB000F0018093EF0185E592E09093FC01809333
:100AC000FB0181E192E09093FE018093FD0185ECB2
:100AD00090E0909300028093FF0184EC90E090936B
:100AE00002028093010280EC90E0909304028093D4
:100AF000030281EC90E0909306028093050282EC61
:100B000090E0909308028093070286EC90E0909327
:100B10000A028093090284E080930B0283E08093B1
:100B20000C0287E080930D0285E080930E0281E045
:100B300080930F0208950E94D6020E94AE00C0E882
:100B4000D4E00E9462012097E1F30E948004F9CF73
:100B5000CF92DF92EF92FF920F931F93CF93DF9389
:100B60006C01EB017A01E60EF71E00E010E00BC00D
:100B70006991D601ED91FC910190F081E02DC601C3
:100B80000995080F191FCE15DF0591F7C801DF91F0
:100B9000CF911F910F91FF90EF90DF90CF9008952C
:100BA0006115710581F0DB010D900020E9F7AD01C1
:100BB00041505109461B570BDC01ED91FC9102801D
:100BC000F381E02D099480E090E00895DC01ED913F
:100BD000FC910190F081E02D09940F931F93CF9326
:100BE000DF93EC016DE00E94E6058C016AE0CE0126
:100BF0000E94E6059C01200F311FC901DF91CF91B2
:100C00001F910F9108950F931F93CF93DF93EC01E2
:100C10000E94D0058C01CE010E94ED059801280F9D
:100C2000391FC901DF91CF911F910F9108954F9204
:100C30005F926F927F929F92AF92BF92CF92DF921C
:100C4000EF92FF920F931F93CF93DF93CDB7DEB751
:100C5000A1970FB6F894DEBF0FBECDBF5C016A014D
:100C60007B01922E19A281E0821710F08AE0982E63
:100C70008E010F5D1F4F492C512C612C712CC70127
:100C8000B601A30192010E9400078C2D929E80194B
:100C90001124015011098A3010F4805D01C0895C73
:100CA000F801808369017A01C114D104E104F104DF
:100CB00031F7B801C5010E94D005A1960FB6F8948E
:100CC000DEBF0FBECDBFDF91CF911F910F91FF907F
:100CD000EF90DF90CF90BF90AF909F907F906F90FC
:100CE0005F904F900895CF92DF92EF92FF920F9313
:100CF0001F93CF93DF93EC016A017B01211531052E
:100D000079F4E881F9810190F081E02D642FDF9181
:100D1000CF911F910F91FF90EF90DF90CF900994AA
:100D20002A30310519F477FD0EC02AE0B701A6017B
:100D3000CE01DF91CF911F910F91FF90EF90DF9047
:100D4000CF900C9417066DE20E94E6058C014427B3
:100D50005527BA014C195D096E097F092AE0CE01B9
:100D60000E941706080F191FC801DF91CF911F912C
:100D70000F91FF90EF90DF90CF9008950F931F9306
:100D8000CF93DF93EC019A01AB01662757FD609585
:100D9000762F0E9473068C01CE010E94ED0598010A
:100DA000280F391FC901DF91CF911F910F9108952D
:100DB000AA1BBB1B51E107C0AA1FBB1FA617B70781
:100DC00010F0A61BB70B881F991F5A95A9F780959D
:100DD0009095BC01CD01089597FB072E16F4009461
:100DE00007D077FD09D00E94D80607FC05D03EF455
:100DF000909581959F4F0895709561957F4F0895C7
:100E0000A1E21A2EAA1BBB1BFD010DC0AA1FBB1F0E
:100E1000EE1FFF1FA217B307E407F50720F0A21B80
:100E2000B30BE40BF50B661F771F881F991F1A94ED
:100E300069F760957095809590959B01AC01BD0117
:100E4000CF010895EE0FFF1F0590F491E02D099456
:040E5000F894FFCF44
:100E5400016D61696E206C6F6F7021006D696E7534
:100E640074657320726561640070756D70206F6EB7
:100E7400212061667465722072656420626C696EFB
:100E84006B732031302074696D6573007761697408
:100E940020666F72206D696E757465730070756D70
:100EA40070206F6E21206166746572207265642003
:100EB400626C696E6B732074687265652074696D09
:100EC40065730070756D70206F6666006772656586
:100ED4006E206C656420626C696E7A6B73203130AD
:100EE4002074696D6573007761697420666F722080
:100EF4003230206D696E7574657300776169746949
:100F04006E20666F72206E657874206379636C65F9
:100F140020666F72203220686F7572732073656368
:100F24006F6E647300000000000804A805AA03D9CA
:060F340003BD03FD0300F4
:00000001FF
